{
  "contractName": "VotingSystem",
  "abi": [
    {
      "inputs": [],
      "stateMutability": "nonpayable",
      "type": "constructor"
    },
    {
      "anonymous": false,
      "inputs": [
        {
          "indexed": true,
          "internalType": "uint256",
          "name": "candidateId",
          "type": "uint256"
        },
        {
          "indexed": false,
          "internalType": "string",
          "name": "name",
          "type": "string"
        },
        {
          "indexed": false,
          "internalType": "string",
          "name": "party",
          "type": "string"
        }
      ],
      "name": "CandidateAdded",
      "type": "event"
    },
    {
      "anonymous": false,
      "inputs": [
        {
          "indexed": true,
          "internalType": "uint256",
          "name": "candidateId",
          "type": "uint256"
        }
      ],
      "name": "CandidateVerified",
      "type": "event"
    },
    {
      "anonymous": false,
      "inputs": [
        {
          "indexed": false,
          "internalType": "enum VotingSystem.ElectionState",
          "name": "newState",
          "type": "uint8"
        }
      ],
      "name": "ElectionStateChanged",
      "type": "event"
    },
    {
      "anonymous": false,
      "inputs": [
        {
          "indexed": true,
          "internalType": "address",
          "name": "voter",
          "type": "address"
        },
        {
          "indexed": true,
          "internalType": "uint256",
          "name": "candidateId",
          "type": "uint256"
        }
      ],
      "name": "VoteCasted",
      "type": "event"
    },
    {
      "anonymous": false,
      "inputs": [
        {
          "indexed": true,
          "internalType": "address",
          "name": "voterAddress",
          "type": "address"
        }
      ],
      "name": "VoterRegistered",
      "type": "event"
    },
    {
      "anonymous": false,
      "inputs": [
        {
          "indexed": true,
          "internalType": "address",
          "name": "voterAddress",
          "type": "address"
        }
      ],
      "name": "VoterVerified",
      "type": "event"
    },
    {
      "inputs": [],
      "name": "admin",
      "outputs": [
        {
          "internalType": "address",
          "name": "",
          "type": "address"
        }
      ],
      "stateMutability": "view",
      "type": "function",
      "constant": true
    },
    {
      "inputs": [],
      "name": "candidateCount",
      "outputs": [
        {
          "internalType": "uint256",
          "name": "",
          "type": "uint256"
        }
      ],
      "stateMutability": "view",
      "type": "function",
      "constant": true
    },
    {
      "inputs": [
        {
          "internalType": "uint256",
          "name": "",
          "type": "uint256"
        }
      ],
      "name": "candidates",
      "outputs": [
        {
          "internalType": "uint256",
          "name": "id",
          "type": "uint256"
        },
        {
          "internalType": "string",
          "name": "name",
          "type": "string"
        },
        {
          "internalType": "string",
          "name": "party",
          "type": "string"
        },
        {
          "internalType": "uint256",
          "name": "voteCount",
          "type": "uint256"
        },
        {
          "internalType": "bool",
          "name": "isVerified",
          "type": "bool"
        }
      ],
      "stateMutability": "view",
      "type": "function",
      "constant": true
    },
    {
      "inputs": [],
      "name": "electionState",
      "outputs": [
        {
          "internalType": "enum VotingSystem.ElectionState",
          "name": "",
          "type": "uint8"
        }
      ],
      "stateMutability": "view",
      "type": "function",
      "constant": true
    },
    {
      "inputs": [],
      "name": "totalVotes",
      "outputs": [
        {
          "internalType": "uint256",
          "name": "",
          "type": "uint256"
        }
      ],
      "stateMutability": "view",
      "type": "function",
      "constant": true
    },
    {
      "inputs": [
        {
          "internalType": "address",
          "name": "",
          "type": "address"
        }
      ],
      "name": "voters",
      "outputs": [
        {
          "internalType": "bool",
          "name": "isRegistered",
          "type": "bool"
        },
        {
          "internalType": "bool",
          "name": "isVerified",
          "type": "bool"
        },
        {
          "internalType": "bool",
          "name": "hasVoted",
          "type": "bool"
        },
        {
          "internalType": "uint256",
          "name": "votedCandidateId",
          "type": "uint256"
        }
      ],
      "stateMutability": "view",
      "type": "function",
      "constant": true
    },
    {
      "inputs": [
        {
          "internalType": "string",
          "name": "_name",
          "type": "string"
        },
        {
          "internalType": "string",
          "name": "_party",
          "type": "string"
        }
      ],
      "name": "addCandidate",
      "outputs": [],
      "stateMutability": "nonpayable",
      "type": "function"
    },
    {
      "inputs": [
        {
          "internalType": "uint256",
          "name": "_candidateId",
          "type": "uint256"
        }
      ],
      "name": "verifyCandidate",
      "outputs": [],
      "stateMutability": "nonpayable",
      "type": "function"
    },
    {
      "inputs": [
        {
          "internalType": "address",
          "name": "_voterAddress",
          "type": "address"
        }
      ],
      "name": "verifyVoter",
      "outputs": [],
      "stateMutability": "nonpayable",
      "type": "function"
    },
    {
      "inputs": [
        {
          "internalType": "enum VotingSystem.ElectionState",
          "name": "_newState",
          "type": "uint8"
        }
      ],
      "name": "changeElectionState",
      "outputs": [],
      "stateMutability": "nonpayable",
      "type": "function"
    },
    {
      "inputs": [],
      "name": "registerVoter",
      "outputs": [],
      "stateMutability": "nonpayable",
      "type": "function"
    },
    {
      "inputs": [
        {
          "internalType": "uint256",
          "name": "_candidateId",
          "type": "uint256"
        }
      ],
      "name": "vote",
      "outputs": [],
      "stateMutability": "nonpayable",
      "type": "function"
    },
    {
      "inputs": [
        {
          "internalType": "uint256",
          "name": "_candidateId",
          "type": "uint256"
        }
      ],
      "name": "getCandidate",
      "outputs": [
        {
          "internalType": "uint256",
          "name": "id",
          "type": "uint256"
        },
        {
          "internalType": "string",
          "name": "name",
          "type": "string"
        },
        {
          "internalType": "string",
          "name": "party",
          "type": "string"
        },
        {
          "internalType": "uint256",
          "name": "voteCount",
          "type": "uint256"
        },
        {
          "internalType": "bool",
          "name": "isVerified",
          "type": "bool"
        }
      ],
      "stateMutability": "view",
      "type": "function",
      "constant": true
    },
    {
      "inputs": [],
      "name": "getAllCandidates",
      "outputs": [
        {
          "components": [
            {
              "internalType": "uint256",
              "name": "id",
              "type": "uint256"
            },
            {
              "internalType": "string",
              "name": "name",
              "type": "string"
            },
            {
              "internalType": "string",
              "name": "party",
              "type": "string"
            },
            {
              "internalType": "uint256",
              "name": "voteCount",
              "type": "uint256"
            },
            {
              "internalType": "bool",
              "name": "isVerified",
              "type": "bool"
            }
          ],
          "internalType": "struct VotingSystem.Candidate[]",
          "name": "",
          "type": "tuple[]"
        }
      ],
      "stateMutability": "view",
      "type": "function",
      "constant": true
    },
    {
      "inputs": [
        {
          "internalType": "address",
          "name": "_voterAddress",
          "type": "address"
        }
      ],
      "name": "getVoter",
      "outputs": [
        {
          "internalType": "bool",
          "name": "isRegistered",
          "type": "bool"
        },
        {
          "internalType": "bool",
          "name": "isVerified",
          "type": "bool"
        },
        {
          "internalType": "bool",
          "name": "hasVoted",
          "type": "bool"
        },
        {
          "internalType": "uint256",
          "name": "votedCandidateId",
          "type": "uint256"
        }
      ],
      "stateMutability": "view",
      "type": "function",
      "constant": true
    },
    {
      "inputs": [
        {
          "internalType": "address",
          "name": "_address",
          "type": "address"
        }
      ],
      "name": "isAdmin",
      "outputs": [
        {
          "internalType": "bool",
          "name": "",
          "type": "bool"
        }
      ],
      "stateMutability": "view",
      "type": "function",
      "constant": true
    },
    {
      "inputs": [],
      "name": "getResults",
      "outputs": [
        {
          "components": [
            {
              "internalType": "uint256",
              "name": "id",
              "type": "uint256"
            },
            {
              "internalType": "string",
              "name": "name",
              "type": "string"
            },
            {
              "internalType": "string",
              "name": "party",
              "type": "string"
            },
            {
              "internalType": "uint256",
              "name": "voteCount",
              "type": "uint256"
            },
            {
              "internalType": "bool",
              "name": "isVerified",
              "type": "bool"
            }
          ],
          "internalType": "struct VotingSystem.Candidate[]",
          "name": "",
          "type": "tuple[]"
        }
      ],
      "stateMutability": "view",
      "type": "function",
      "constant": true
    },
    {
      "inputs": [],
      "name": "getWinner",
      "outputs": [
        {
          "internalType": "uint256",
          "name": "id",
          "type": "uint256"
        },
        {
          "internalType": "string",
          "name": "name",
          "type": "string"
        },
        {
          "internalType": "string",
          "name": "party",
          "type": "string"
        },
        {
          "internalType": "uint256",
          "name": "voteCount",
          "type": "uint256"
        }
      ],
      "stateMutability": "view",
      "type": "function",
      "constant": true
    }
  ],
  "bytecode": "0x608060405234801561001057600080fd5b506000805460ff60a01b1933166001600160a81b03199091161781556001819055600255611c6f806100436000396000f3fe608060405234801561001057600080fd5b50600436106101165760003560e01c80634717f97c116100a2578063a9a981a311610071578063a9a981a3146102ac578063bae76d63146102b5578063d4f50f98146102c8578063ecb617d914610339578063f851a4401461034157600080fd5b80634717f97c146102115780638d6d70d7146102195780638e7ea5b21461022c578063a3ec138d1461024457600080fd5b806324d7806c116100e957806324d7806c1461018057806326541b56146101b25780632e6997fe146101c55780633477ee2e146101da57806335b8e820146101fe57600080fd5b80630121b93f1461011b57806309bd0950146101305780630d15fd77146101435780632280043d1461015f575b600080fd5b61012e6101293660046116ac565b61036c565b005b61012e61013e3660046116c5565b6105de565b61014c60025481565b6040519081526020015b60405180910390f35b60005461017390600160a01b900460ff1681565b604051610156919061170b565b6101a261018e3660046116c5565b6000546001600160a01b0391821691161490565b6040519015158152602001610156565b61012e6101c03660046117d6565b610725565b6101cd610911565b6040516101569190611880565b6101ed6101e83660046116ac565b610b4a565b604051610156959493929190611927565b6101ed61020c3660046116ac565b610c8d565b6101cd610e56565b61012e61022736600461196c565b610efa565b610234611183565b604051610156949392919061198d565b6102846102523660046116c5565b6003602052600090815260409020805460019091015460ff808316926101008104821692620100009091049091169084565b6040805194151585529215156020850152901515918301919091526060820152608001610156565b61014c60015481565b61012e6102c33660046116ac565b61142c565b6102846102d63660046116c5565b6001600160a01b03166000908152600360209081526040918290208251608081018452815460ff80821615158084526101008304821615159584018690526201000090920416151594820185905260019092015460609091018190529093919291565b61012e61156e565b600054610354906001600160a01b031681565b6040516001600160a01b039091168152602001610156565b600180600054600160a01b900460ff16600281111561038d5761038d6116f5565b146103b35760405162461bcd60e51b81526004016103aa906119ca565b60405180910390fd5b3360009081526003602052604090205460ff1661040b5760405162461bcd60e51b8152602060048201526016602482015275165bdd48185c99481b9bdd081c9959da5cdd195c995960521b60448201526064016103aa565b33600090815260036020526040902054610100900460ff166104665760405162461bcd60e51b8152602060048201526014602482015273165bdd48185c99481b9bdd081d995c9a599a595960621b60448201526064016103aa565b3360009081526003602052604090205462010000900460ff16156104c55760405162461bcd60e51b8152602060048201526016602482015275165bdd481a185d9948185b1c9958591e481d9bdd195960521b60448201526064016103aa565b6000821180156104d757506001548211155b6104f35760405162461bcd60e51b81526004016103aa906119fa565b6000828152600460208190526040909120015460ff166105555760405162461bcd60e51b815260206004820152601960248201527f43616e646964617465206973206e6f742076657269666965640000000000000060448201526064016103aa565b336000908152600360208181526040808420805462ff0000191662010000178155600101869055858452600490915282200180549161059383611a3e565b9091555050600280549060006105a883611a3e565b9091555050604051829033907fd0e6c39f2e086dc49f1524b47725526a56945cd1ff661f37976f1725a1e5698690600090a35050565b6000546001600160a01b031633146106085760405162461bcd60e51b81526004016103aa90611a57565b6001600160a01b03811660009081526003602052604090205460ff166106705760405162461bcd60e51b815260206004820152601760248201527f566f746572206973206e6f74207265676973746572656400000000000000000060448201526064016103aa565b6001600160a01b038116600090815260036020526040902054610100900460ff16156106d75760405162461bcd60e51b8152602060048201526016602482015275159bdd195c88185b1c9958591e481d995c9a599a595960521b60448201526064016103aa565b6001600160a01b038116600081815260036020526040808220805461ff001916610100179055517f73d35f4b5dc2339683083dec639ba37f0f5592fc26de0e0603ac5ba2412cd0049190a250565b6000546001600160a01b0316331461074f5760405162461bcd60e51b81526004016103aa90611a57565b600080600054600160a01b900460ff166002811115610770576107706116f5565b1461078d5760405162461bcd60e51b81526004016103aa906119ca565b60008351116107de5760405162461bcd60e51b815260206004820152601e60248201527f43616e646964617465206e616d652063616e6e6f7420626520656d707479000060448201526064016103aa565b600082511161082f5760405162461bcd60e51b815260206004820152601a60248201527f5061727479206e616d652063616e6e6f7420626520656d70747900000000000060448201526064016103aa565b6001805490600061083f83611a3e565b90915550506040805160a081018252600180548083526020808401888152848601889052600060608601819052608086018190529283526004909152939020825181559251919291908201906108959082611b1c565b50604082015160028201906108aa9082611b1c565b50606082015160038201556080909101516004909101805460ff19169115159190911790556001546040517fe64f834082661dd9ed89427b87edb6270fd6dad17198b0938f0edd058914c87f906109049086908690611bdc565b60405180910390a2505050565b6060600060015467ffffffffffffffff81111561093057610930611733565b60405190808252806020026020018201604052801561099557816020015b6109826040518060a00160405280600081526020016060815260200160608152602001600081526020016000151581525090565b81526020019060019003908161094e5790505b50905060015b6001548111610b4457600460008281526020019081526020016000206040518060a0016040529081600082015481526020016001820180546109dc90611a99565b80601f0160208091040260200160405190810160405280929190818152602001828054610a0890611a99565b8015610a555780601f10610a2a57610100808354040283529160200191610a55565b820191906000526020600020905b815481529060010190602001808311610a3857829003601f168201915b50505050508152602001600282018054610a6e90611a99565b80601f0160208091040260200160405190810160405280929190818152602001828054610a9a90611a99565b8015610ae75780601f10610abc57610100808354040283529160200191610ae7565b820191906000526020600020905b815481529060010190602001808311610aca57829003601f168201915b50505091835250506003820154602082015260049091015460ff16151560409091015282610b16600184611c0a565b81518110610b2657610b26611c23565b60200260200101819052508080610b3c90611a3e565b91505061099b565b50919050565b60046020526000908152604090208054600182018054919291610b6c90611a99565b80601f0160208091040260200160405190810160405280929190818152602001828054610b9890611a99565b8015610be55780601f10610bba57610100808354040283529160200191610be5565b820191906000526020600020905b815481529060010190602001808311610bc857829003601f168201915b505050505090806002018054610bfa90611a99565b80601f0160208091040260200160405190810160405280929190818152602001828054610c2690611a99565b8015610c735780601f10610c4857610100808354040283529160200191610c73565b820191906000526020600020905b815481529060010190602001808311610c5657829003601f168201915b50505050600383015460049093015491929160ff16905085565b6000606080600080600086118015610ca757506001548611155b610cc35760405162461bcd60e51b81526004016103aa906119fa565b6000600460008881526020019081526020016000206040518060a001604052908160008201548152602001600182018054610cfd90611a99565b80601f0160208091040260200160405190810160405280929190818152602001828054610d2990611a99565b8015610d765780601f10610d4b57610100808354040283529160200191610d76565b820191906000526020600020905b815481529060010190602001808311610d5957829003601f168201915b50505050508152602001600282018054610d8f90611a99565b80601f0160208091040260200160405190810160405280929190818152602001828054610dbb90611a99565b8015610e085780601f10610ddd57610100808354040283529160200191610e08565b820191906000526020600020905b815481529060010190602001808311610deb57829003601f168201915b5050509183525050600382015460208083019190915260049092015460ff161515604091820152825191830151908301516060840151608090940151929b919a509850919650945092505050565b60606001600054600160a01b900460ff166002811115610e7857610e786116f5565b1480610ea157506002600054600160a01b900460ff166002811115610e9f57610e9f6116f5565b145b610eed5760405162461bcd60e51b815260206004820152601960248201527f526573756c7473206e6f7420617661696c61626c65207965740000000000000060448201526064016103aa565b610ef5610911565b905090565b6000546001600160a01b03163314610f245760405162461bcd60e51b81526004016103aa90611a57565b600054600160a01b900460ff166002811115610f4257610f426116f5565b816002811115610f5457610f546116f5565b03610f995760405162461bcd60e51b8152602060048201526015602482015274416c726561647920696e207468697320737461746560581b60448201526064016103aa565b6001816002811115610fad57610fad6116f5565b036110995760008054600160a01b900460ff166002811115610fd157610fd16116f5565b1461102e5760405162461bcd60e51b815260206004820152602760248201527f43616e206f6e6c7920737461727420766f74696e672066726f6d2072656769736044820152663a3930ba34b7b760c91b60648201526084016103aa565b6000600154116110945760405162461bcd60e51b815260206004820152602b60248201527f4e656564206174206c65617374206f6e652063616e64696461746520746f207360448201526a7461727420766f74696e6760a81b60648201526084016103aa565b61111f565b60028160028111156110ad576110ad6116f5565b0361111f576001600054600160a01b900460ff1660028111156110d2576110d26116f5565b1461111f5760405162461bcd60e51b815260206004820152601e60248201527f43616e206f6e6c7920656e642066726f6d20766f74696e67207374617465000060448201526064016103aa565b6000805482919060ff60a01b1916600160a01b836002811115611144576111446116f5565b02179055507f82aa0cc22cbb103bd5f28a40c65b9e63f2df333bbb70c6c9128eb83d7cb1041d81604051611178919061170b565b60405180910390a150565b600060608082600280600054600160a01b900460ff1660028111156111aa576111aa6116f5565b146111c75760405162461bcd60e51b81526004016103aa906119ca565b6000600154116112095760405162461bcd60e51b815260206004820152600d60248201526c4e6f2063616e6469646174657360981b60448201526064016103aa565b60008060015b600154811161125b576000818152600460205260409020600301548310156112495760008181526004602052604090206003015492509050805b8061125381611a3e565b91505061120f565b506000811161129e5760405162461bcd60e51b815260206004820152600f60248201526e139bc81dda5b9b995c88199bdd5b99608a1b60448201526064016103aa565b6000600460008381526020019081526020016000206040518060a0016040529081600082015481526020016001820180546112d890611a99565b80601f016020809104026020016040519081016040528092919081815260200182805461130490611a99565b80156113515780601f1061132657610100808354040283529160200191611351565b820191906000526020600020905b81548152906001019060200180831161133457829003601f168201915b5050505050815260200160028201805461136a90611a99565b80601f016020809104026020016040519081016040528092919081815260200182805461139690611a99565b80156113e35780601f106113b8576101008083540402835291602001916113e3565b820191906000526020600020905b8154815290600101906020018083116113c657829003601f168201915b5050509183525050600382015460208083019190915260049092015460ff16151560409182015282519183015190830151606090930151919b909a509198509650945050505050565b6000546001600160a01b031633146114565760405162461bcd60e51b81526004016103aa90611a57565b600080600054600160a01b900460ff166002811115611477576114776116f5565b146114945760405162461bcd60e51b81526004016103aa906119ca565b6000821180156114a657506001548211155b6114c25760405162461bcd60e51b81526004016103aa906119fa565b6000828152600460208190526040909120015460ff16156115255760405162461bcd60e51b815260206004820152601a60248201527f43616e64696461746520616c726561647920766572696669656400000000000060448201526064016103aa565b6000828152600460208190526040808320909101805460ff191660011790555183917f997c311b21ca9ada6475cc93d746592ebf05cb114894e4105380cd22dd4ff87a91a25050565b600080600054600160a01b900460ff16600281111561158f5761158f6116f5565b146115ac5760405162461bcd60e51b81526004016103aa906119ca565b3360009081526003602052604090205460ff161561160c5760405162461bcd60e51b815260206004820152601860248201527f566f74657220616c72656164792072656769737465726564000000000000000060448201526064016103aa565b604080516080810182526001808252600060208084018281528486018381526060860184815233808652600390945287852096518754935192511515620100000262ff0000199315156101000261ff00199215159290921661ffff1990951694909417179190911691909117855551939092019290925591517fb6be2187d059cc2a55fe29e0e503b566e1e0f8c8780096e185429350acffd3dd9190a250565b6000602082840312156116be57600080fd5b5035919050565b6000602082840312156116d757600080fd5b81356001600160a01b03811681146116ee57600080fd5b9392505050565b634e487b7160e01b600052602160045260246000fd5b602081016003831061172d57634e487b7160e01b600052602160045260246000fd5b91905290565b634e487b7160e01b600052604160045260246000fd5b600082601f83011261175a57600080fd5b813567ffffffffffffffff8082111561177557611775611733565b604051601f8301601f19908116603f0116810190828211818310171561179d5761179d611733565b816040528381528660208588010111156117b657600080fd5b836020870160208301376000602085830101528094505050505092915050565b600080604083850312156117e957600080fd5b823567ffffffffffffffff8082111561180157600080fd5b61180d86838701611749565b9350602085013591508082111561182357600080fd5b5061183085828601611749565b9150509250929050565b6000815180845260005b8181101561186057602081850181015186830182015201611844565b506000602082860101526020601f19601f83011685010191505092915050565b60006020808301818452808551808352604092508286019150828160051b87010184880160005b8381101561191957603f19898403018552815160a08151855288820151818a8701526118d58287018261183a565b91505087820151858203898701526118ed828261183a565b6060848101519088015260809384015115159390960192909252505093860193908601906001016118a7565b509098975050505050505050565b85815260a06020820152600061194060a083018761183a565b8281036040840152611952818761183a565b606084019590955250509015156080909101529392505050565b60006020828403121561197e57600080fd5b8135600381106116ee57600080fd5b8481526080602082015260006119a6608083018661183a565b82810360408401526119b8818661183a565b91505082606083015295945050505050565b602080825260169082015275496e76616c696420656c656374696f6e20737461746560501b604082015260600190565b602080825260149082015273125b9d985b1a590818d85b991a59185d1948125160621b604082015260600190565b634e487b7160e01b600052601160045260246000fd5b600060018201611a5057611a50611a28565b5060010190565b60208082526022908201527f4f6e6c792061646d696e2063616e20706572666f726d2074686973206163746960408201526137b760f11b606082015260800190565b600181811c90821680611aad57607f821691505b602082108103610b4457634e487b7160e01b600052602260045260246000fd5b601f821115611b1757600081815260208120601f850160051c81016020861015611af45750805b601f850160051c820191505b81811015611b1357828155600101611b00565b5050505b505050565b815167ffffffffffffffff811115611b3657611b36611733565b611b4a81611b448454611a99565b84611acd565b602080601f831160018114611b7f5760008415611b675750858301515b600019600386901b1c1916600185901b178555611b13565b600085815260208120601f198616915b82811015611bae57888601518255948401946001909101908401611b8f565b5085821015611bcc5787850151600019600388901b60f8161c191681555b5050505050600190811b01905550565b604081526000611bef604083018561183a565b8281036020840152611c01818561183a565b95945050505050565b81810381811115611c1d57611c1d611a28565b92915050565b634e487b7160e01b600052603260045260246000fdfea2646970667358221220efc02da70db4689f9c293a1913d37c2bbb206853ebdbd57fe02cb78a0d481e4b64736f6c63430008130033",
  "immutableReferences": {},
  "source": "// SPDX-License-Identifier: MIT\r\npragma solidity ^0.8.0;\r\n\r\ncontract VotingSystem {\r\n    // Struct  lu thng tin ng vin\r\n    struct Candidate {\r\n        uint256 id;\r\n        string name;\r\n        string party;\r\n        uint256 voteCount;\r\n        bool isVerified;\r\n    }\r\n\r\n    // Struct  lu thng tin c tri\r\n    struct Voter {\r\n        bool isRegistered;\r\n        bool isVerified;\r\n        bool hasVoted;\r\n        uint256 votedCandidateId;\r\n    }\r\n\r\n    // Enum trng thi cuc b phiu\r\n    enum ElectionState {\r\n        Registration, // ng k c tri v ng vin\r\n        Voting, // ang b phiu\r\n        Ended // Kt thc\r\n    }\r\n\r\n    // State variables\r\n    address public admin;\r\n    ElectionState public electionState;\r\n    uint256 public candidateCount;\r\n    uint256 public totalVotes;\r\n\r\n    // Mappings\r\n    mapping(address => Voter) public voters;\r\n    mapping(uint256 => Candidate) public candidates;\r\n\r\n    // Events\r\n    event CandidateAdded(\r\n        uint256 indexed candidateId,\r\n        string name,\r\n        string party\r\n    );\r\n    event CandidateVerified(uint256 indexed candidateId);\r\n    event VoterRegistered(address indexed voterAddress);\r\n    event VoterVerified(address indexed voterAddress);\r\n    event VoteCasted(address indexed voter, uint256 indexed candidateId);\r\n    event ElectionStateChanged(ElectionState newState);\r\n\r\n    // Modifiers\r\n    modifier onlyAdmin() {\r\n        require(msg.sender == admin, \"Only admin can perform this action\");\r\n        _;\r\n    }\r\n\r\n    modifier inState(ElectionState _state) {\r\n        require(electionState == _state, \"Invalid election state\");\r\n        _;\r\n    }\r\n\r\n    constructor() {\r\n        admin = msg.sender;\r\n        electionState = ElectionState.Registration;\r\n        candidateCount = 0;\r\n        totalVotes = 0;\r\n    }\r\n\r\n    // ============ ADMIN FUNCTIONS ============\r\n\r\n    // Thm ng vin (ch admin)\r\n    function addCandidate(\r\n        string memory _name,\r\n        string memory _party\r\n    ) public onlyAdmin inState(ElectionState.Registration) {\r\n        require(bytes(_name).length > 0, \"Candidate name cannot be empty\");\r\n        require(bytes(_party).length > 0, \"Party name cannot be empty\");\r\n\r\n        candidateCount++;\r\n        candidates[candidateCount] = Candidate({\r\n            id: candidateCount,\r\n            name: _name,\r\n            party: _party,\r\n            voteCount: 0,\r\n            isVerified: false\r\n        });\r\n\r\n        emit CandidateAdded(candidateCount, _name, _party);\r\n    }\r\n\r\n    // Xc thc ng vin\r\n    function verifyCandidate(\r\n        uint256 _candidateId\r\n    ) public onlyAdmin inState(ElectionState.Registration) {\r\n        require(\r\n            _candidateId > 0 && _candidateId <= candidateCount,\r\n            \"Invalid candidate ID\"\r\n        );\r\n        require(\r\n            !candidates[_candidateId].isVerified,\r\n            \"Candidate already verified\"\r\n        );\r\n\r\n        candidates[_candidateId].isVerified = true;\r\n        emit CandidateVerified(_candidateId);\r\n    }\r\n\r\n    // Xc thc c tri\r\n    function verifyVoter(address _voterAddress) public onlyAdmin {\r\n        require(voters[_voterAddress].isRegistered, \"Voter is not registered\");\r\n        require(!voters[_voterAddress].isVerified, \"Voter already verified\");\r\n\r\n        voters[_voterAddress].isVerified = true;\r\n        emit VoterVerified(_voterAddress);\r\n    }\r\n\r\n    // Chuyn i trng thi cuc b phiu\r\n    function changeElectionState(ElectionState _newState) public onlyAdmin {\r\n        require(_newState != electionState, \"Already in this state\");\r\n\r\n        // Validate state transitions\r\n        if (_newState == ElectionState.Voting) {\r\n            require(\r\n                electionState == ElectionState.Registration,\r\n                \"Can only start voting from registration\"\r\n            );\r\n            require(\r\n                candidateCount > 0,\r\n                \"Need at least one candidate to start voting\"\r\n            );\r\n        } else if (_newState == ElectionState.Ended) {\r\n            require(\r\n                electionState == ElectionState.Voting,\r\n                \"Can only end from voting state\"\r\n            );\r\n        }\r\n\r\n        electionState = _newState;\r\n        emit ElectionStateChanged(_newState);\r\n    }\r\n\r\n    // ============ VOTER FUNCTIONS ============\r\n\r\n    // ng k c tri\r\n    function registerVoter() public inState(ElectionState.Registration) {\r\n        require(!voters[msg.sender].isRegistered, \"Voter already registered\");\r\n\r\n        voters[msg.sender] = Voter({\r\n            isRegistered: true,\r\n            isVerified: false,\r\n            hasVoted: false,\r\n            votedCandidateId: 0\r\n        });\r\n\r\n        emit VoterRegistered(msg.sender);\r\n    }\r\n\r\n    // B phiu\r\n    function vote(uint256 _candidateId) public inState(ElectionState.Voting) {\r\n        require(voters[msg.sender].isRegistered, \"You are not registered\");\r\n        require(voters[msg.sender].isVerified, \"You are not verified\");\r\n        require(!voters[msg.sender].hasVoted, \"You have already voted\");\r\n        require(\r\n            _candidateId > 0 && _candidateId <= candidateCount,\r\n            \"Invalid candidate ID\"\r\n        );\r\n        require(\r\n            candidates[_candidateId].isVerified,\r\n            \"Candidate is not verified\"\r\n        );\r\n\r\n        voters[msg.sender].hasVoted = true;\r\n        voters[msg.sender].votedCandidateId = _candidateId;\r\n\r\n        candidates[_candidateId].voteCount++;\r\n        totalVotes++;\r\n\r\n        emit VoteCasted(msg.sender, _candidateId);\r\n    }\r\n\r\n    // ============ VIEW FUNCTIONS ============\r\n\r\n    // Ly thng tin ng vin\r\n    function getCandidate(\r\n        uint256 _candidateId\r\n    )\r\n        public\r\n        view\r\n        returns (\r\n            uint256 id,\r\n            string memory name,\r\n            string memory party,\r\n            uint256 voteCount,\r\n            bool isVerified\r\n        )\r\n    {\r\n        require(\r\n            _candidateId > 0 && _candidateId <= candidateCount,\r\n            \"Invalid candidate ID\"\r\n        );\r\n        Candidate memory c = candidates[_candidateId];\r\n        return (c.id, c.name, c.party, c.voteCount, c.isVerified);\r\n    }\r\n\r\n    // Ly tt c ng vin\r\n    function getAllCandidates() public view returns (Candidate[] memory) {\r\n        Candidate[] memory allCandidates = new Candidate[](candidateCount);\r\n        for (uint256 i = 1; i <= candidateCount; i++) {\r\n            allCandidates[i - 1] = candidates[i];\r\n        }\r\n        return allCandidates;\r\n    }\r\n\r\n    // Ly thng tin c tri\r\n    function getVoter(\r\n        address _voterAddress\r\n    )\r\n        public\r\n        view\r\n        returns (\r\n            bool isRegistered,\r\n            bool isVerified,\r\n            bool hasVoted,\r\n            uint256 votedCandidateId\r\n        )\r\n    {\r\n        Voter memory v = voters[_voterAddress];\r\n        return (v.isRegistered, v.isVerified, v.hasVoted, v.votedCandidateId);\r\n    }\r\n\r\n    // Kim tra xem address c phi admin khng\r\n    function isAdmin(address _address) public view returns (bool) {\r\n        return _address == admin;\r\n    }\r\n\r\n    // Ly kt qu b phiu (ch khi  kt thc hoc ang voting)\r\n    function getResults() public view returns (Candidate[] memory) {\r\n        require(\r\n            electionState == ElectionState.Voting ||\r\n                electionState == ElectionState.Ended,\r\n            \"Results not available yet\"\r\n        );\r\n        return getAllCandidates();\r\n    }\r\n\r\n    // Ly ngi chin thng\r\n    function getWinner()\r\n        public\r\n        view\r\n        inState(ElectionState.Ended)\r\n        returns (\r\n            uint256 id,\r\n            string memory name,\r\n            string memory party,\r\n            uint256 voteCount\r\n        )\r\n    {\r\n        require(candidateCount > 0, \"No candidates\");\r\n\r\n        uint256 winningVoteCount = 0;\r\n        uint256 winningCandidateId = 0;\r\n\r\n        for (uint256 i = 1; i <= candidateCount; i++) {\r\n            if (candidates[i].voteCount > winningVoteCount) {\r\n                winningVoteCount = candidates[i].voteCount;\r\n                winningCandidateId = i;\r\n            }\r\n        }\r\n\r\n        require(winningCandidateId > 0, \"No winner found\");\r\n        Candidate memory winner = candidates[winningCandidateId];\r\n        return (winner.id, winner.name, winner.party, winner.voteCount);\r\n    }\r\n}\r\n",
  "sourcePath": "D:\\Coding\\BlockChain\\smart-contracts\\contracts\\VotingSystem.sol",
  "compiler": {
    "name": "solc",
    "version": "0.8.19+commit.7dd6d404.Emscripten.clang"
  },
  "schemaVersion": "3.4.16",
  "updatedAt": "2025-12-17T02:09:28.036Z",
  "networkType": "ethereum",
  "devdoc": {
    "kind": "dev",
    "methods": {},
    "version": 1
  },
  "userdoc": {
    "kind": "user",
    "methods": {},
    "version": 1
  }
}