{
  "contractName": "VotingSystem",
  "abi": [
    {
      "inputs": [],
      "stateMutability": "nonpayable",
      "type": "constructor"
    },
    {
      "anonymous": false,
      "inputs": [
        {
          "indexed": true,
          "internalType": "uint256",
          "name": "candidateId",
          "type": "uint256"
        },
        {
          "indexed": false,
          "internalType": "string",
          "name": "name",
          "type": "string"
        },
        {
          "indexed": false,
          "internalType": "string",
          "name": "party",
          "type": "string"
        }
      ],
      "name": "CandidateAdded",
      "type": "event"
    },
    {
      "anonymous": false,
      "inputs": [
        {
          "indexed": true,
          "internalType": "uint256",
          "name": "candidateId",
          "type": "uint256"
        }
      ],
      "name": "CandidateVerified",
      "type": "event"
    },
    {
      "anonymous": false,
      "inputs": [
        {
          "indexed": false,
          "internalType": "enum VotingSystem.ElectionState",
          "name": "newState",
          "type": "uint8"
        }
      ],
      "name": "ElectionStateChanged",
      "type": "event"
    },
    {
      "anonymous": false,
      "inputs": [
        {
          "indexed": true,
          "internalType": "address",
          "name": "voter",
          "type": "address"
        },
        {
          "indexed": true,
          "internalType": "uint256",
          "name": "candidateId",
          "type": "uint256"
        }
      ],
      "name": "VoteCasted",
      "type": "event"
    },
    {
      "anonymous": false,
      "inputs": [
        {
          "indexed": true,
          "internalType": "address",
          "name": "voterAddress",
          "type": "address"
        }
      ],
      "name": "VoterRegistered",
      "type": "event"
    },
    {
      "anonymous": false,
      "inputs": [
        {
          "indexed": true,
          "internalType": "address",
          "name": "voterAddress",
          "type": "address"
        }
      ],
      "name": "VoterVerified",
      "type": "event"
    },
    {
      "inputs": [],
      "name": "admin",
      "outputs": [
        {
          "internalType": "address",
          "name": "",
          "type": "address"
        }
      ],
      "stateMutability": "view",
      "type": "function",
      "constant": true
    },
    {
      "inputs": [],
      "name": "candidateCount",
      "outputs": [
        {
          "internalType": "uint256",
          "name": "",
          "type": "uint256"
        }
      ],
      "stateMutability": "view",
      "type": "function",
      "constant": true
    },
    {
      "inputs": [
        {
          "internalType": "uint256",
          "name": "",
          "type": "uint256"
        }
      ],
      "name": "candidates",
      "outputs": [
        {
          "internalType": "uint256",
          "name": "id",
          "type": "uint256"
        },
        {
          "internalType": "string",
          "name": "name",
          "type": "string"
        },
        {
          "internalType": "string",
          "name": "party",
          "type": "string"
        },
        {
          "internalType": "uint256",
          "name": "voteCount",
          "type": "uint256"
        },
        {
          "internalType": "bool",
          "name": "isVerified",
          "type": "bool"
        }
      ],
      "stateMutability": "view",
      "type": "function",
      "constant": true
    },
    {
      "inputs": [],
      "name": "electionState",
      "outputs": [
        {
          "internalType": "enum VotingSystem.ElectionState",
          "name": "",
          "type": "uint8"
        }
      ],
      "stateMutability": "view",
      "type": "function",
      "constant": true
    },
    {
      "inputs": [],
      "name": "totalVotes",
      "outputs": [
        {
          "internalType": "uint256",
          "name": "",
          "type": "uint256"
        }
      ],
      "stateMutability": "view",
      "type": "function",
      "constant": true
    },
    {
      "inputs": [
        {
          "internalType": "address",
          "name": "",
          "type": "address"
        }
      ],
      "name": "voters",
      "outputs": [
        {
          "internalType": "bool",
          "name": "isRegistered",
          "type": "bool"
        },
        {
          "internalType": "bool",
          "name": "isVerified",
          "type": "bool"
        },
        {
          "internalType": "bool",
          "name": "hasVoted",
          "type": "bool"
        },
        {
          "internalType": "uint256",
          "name": "votedCandidateId",
          "type": "uint256"
        }
      ],
      "stateMutability": "view",
      "type": "function",
      "constant": true
    },
    {
      "inputs": [
        {
          "internalType": "string",
          "name": "_name",
          "type": "string"
        },
        {
          "internalType": "string",
          "name": "_party",
          "type": "string"
        }
      ],
      "name": "addCandidate",
      "outputs": [],
      "stateMutability": "nonpayable",
      "type": "function"
    },
    {
      "inputs": [
        {
          "internalType": "uint256",
          "name": "_candidateId",
          "type": "uint256"
        }
      ],
      "name": "verifyCandidate",
      "outputs": [],
      "stateMutability": "nonpayable",
      "type": "function"
    },
    {
      "inputs": [
        {
          "internalType": "address",
          "name": "_voterAddress",
          "type": "address"
        }
      ],
      "name": "verifyVoter",
      "outputs": [],
      "stateMutability": "nonpayable",
      "type": "function"
    },
    {
      "inputs": [
        {
          "internalType": "enum VotingSystem.ElectionState",
          "name": "_newState",
          "type": "uint8"
        }
      ],
      "name": "changeElectionState",
      "outputs": [],
      "stateMutability": "nonpayable",
      "type": "function"
    },
    {
      "inputs": [],
      "name": "registerVoter",
      "outputs": [],
      "stateMutability": "nonpayable",
      "type": "function"
    },
    {
      "inputs": [
        {
          "internalType": "uint256",
          "name": "_candidateId",
          "type": "uint256"
        }
      ],
      "name": "vote",
      "outputs": [],
      "stateMutability": "payable",
      "type": "function",
      "payable": true
    },
    {
      "inputs": [
        {
          "internalType": "uint256",
          "name": "_candidateId",
          "type": "uint256"
        }
      ],
      "name": "getCandidate",
      "outputs": [
        {
          "internalType": "uint256",
          "name": "id",
          "type": "uint256"
        },
        {
          "internalType": "string",
          "name": "name",
          "type": "string"
        },
        {
          "internalType": "string",
          "name": "party",
          "type": "string"
        },
        {
          "internalType": "uint256",
          "name": "voteCount",
          "type": "uint256"
        },
        {
          "internalType": "bool",
          "name": "isVerified",
          "type": "bool"
        }
      ],
      "stateMutability": "view",
      "type": "function",
      "constant": true
    },
    {
      "inputs": [],
      "name": "getAllCandidates",
      "outputs": [
        {
          "components": [
            {
              "internalType": "uint256",
              "name": "id",
              "type": "uint256"
            },
            {
              "internalType": "string",
              "name": "name",
              "type": "string"
            },
            {
              "internalType": "string",
              "name": "party",
              "type": "string"
            },
            {
              "internalType": "uint256",
              "name": "voteCount",
              "type": "uint256"
            },
            {
              "internalType": "bool",
              "name": "isVerified",
              "type": "bool"
            }
          ],
          "internalType": "struct VotingSystem.Candidate[]",
          "name": "",
          "type": "tuple[]"
        }
      ],
      "stateMutability": "view",
      "type": "function",
      "constant": true
    },
    {
      "inputs": [
        {
          "internalType": "address",
          "name": "_voterAddress",
          "type": "address"
        }
      ],
      "name": "getVoter",
      "outputs": [
        {
          "internalType": "bool",
          "name": "isRegistered",
          "type": "bool"
        },
        {
          "internalType": "bool",
          "name": "isVerified",
          "type": "bool"
        },
        {
          "internalType": "bool",
          "name": "hasVoted",
          "type": "bool"
        },
        {
          "internalType": "uint256",
          "name": "votedCandidateId",
          "type": "uint256"
        }
      ],
      "stateMutability": "view",
      "type": "function",
      "constant": true
    },
    {
      "inputs": [
        {
          "internalType": "address",
          "name": "_address",
          "type": "address"
        }
      ],
      "name": "isAdmin",
      "outputs": [
        {
          "internalType": "bool",
          "name": "",
          "type": "bool"
        }
      ],
      "stateMutability": "view",
      "type": "function",
      "constant": true
    },
    {
      "inputs": [],
      "name": "getResults",
      "outputs": [
        {
          "components": [
            {
              "internalType": "uint256",
              "name": "id",
              "type": "uint256"
            },
            {
              "internalType": "string",
              "name": "name",
              "type": "string"
            },
            {
              "internalType": "string",
              "name": "party",
              "type": "string"
            },
            {
              "internalType": "uint256",
              "name": "voteCount",
              "type": "uint256"
            },
            {
              "internalType": "bool",
              "name": "isVerified",
              "type": "bool"
            }
          ],
          "internalType": "struct VotingSystem.Candidate[]",
          "name": "",
          "type": "tuple[]"
        }
      ],
      "stateMutability": "view",
      "type": "function",
      "constant": true
    },
    {
      "inputs": [],
      "name": "getWinner",
      "outputs": [
        {
          "internalType": "uint256",
          "name": "id",
          "type": "uint256"
        },
        {
          "internalType": "string",
          "name": "name",
          "type": "string"
        },
        {
          "internalType": "string",
          "name": "party",
          "type": "string"
        },
        {
          "internalType": "uint256",
          "name": "voteCount",
          "type": "uint256"
        }
      ],
      "stateMutability": "view",
      "type": "function",
      "constant": true
    }
  ],
  "bytecode": "0x608060405234801561001057600080fd5b506000805460ff60a01b1933166001600160a81b03199091161781556001819055600255611d87806100436000396000f3fe6080604052600436106101095760003560e01c80634717f97c11610095578063a9a981a311610064578063a9a981a31461033b578063bae76d6314610351578063d4f50f9814610371578063ecb617d9146103ef578063f851a4401461040457600080fd5b80634717f97c1461026c5780638d6d70d7146102815780638e7ea5b2146102a1578063a3ec138d146102c657600080fd5b806324d7806c116100dc57806324d7806c1461019a57806326541b56146101d95780632e6997fe146101f95780633477ee2e1461021b57806335b8e8201461024c57600080fd5b80630121b93f1461010e57806309bd0950146101235780630d15fd77146101435780632280043d1461016c575b600080fd5b61012161011c3660046117c4565b61043c565b005b34801561012f57600080fd5b5061012161013e3660046117dd565b6106f6565b34801561014f57600080fd5b5061015960025481565b6040519081526020015b60405180910390f35b34801561017857600080fd5b5060005461018d90600160a01b900460ff1681565b6040516101639190611823565b3480156101a657600080fd5b506101c96101b53660046117dd565b6000546001600160a01b0391821691161490565b6040519015158152602001610163565b3480156101e557600080fd5b506101216101f43660046118ee565b61083d565b34801561020557600080fd5b5061020e610a29565b6040516101639190611998565b34801561022757600080fd5b5061023b6102363660046117c4565b610c62565b604051610163959493929190611a3f565b34801561025857600080fd5b5061023b6102673660046117c4565b610da5565b34801561027857600080fd5b5061020e610f6e565b34801561028d57600080fd5b5061012161029c366004611a84565b611012565b3480156102ad57600080fd5b506102b661129b565b6040516101639493929190611aa5565b3480156102d257600080fd5b506103136102e13660046117dd565b6003602052600090815260409020805460019091015460ff808316926101008104821692620100009091049091169084565b6040805194151585529215156020850152901515918301919091526060820152608001610163565b34801561034757600080fd5b5061015960015481565b34801561035d57600080fd5b5061012161036c3660046117c4565b611544565b34801561037d57600080fd5b5061031361038c3660046117dd565b6001600160a01b03166000908152600360209081526040918290208251608081018452815460ff80821615158084526101008304821615159584018690526201000090920416151594820185905260019092015460609091018190529093919291565b3480156103fb57600080fd5b50610121611686565b34801561041057600080fd5b50600054610424906001600160a01b031681565b6040516001600160a01b039091168152602001610163565b600180600054600160a01b900460ff16600281111561045d5761045d61180d565b146104835760405162461bcd60e51b815260040161047a90611ae2565b60405180910390fd5b3360009081526003602052604090205460ff166104db5760405162461bcd60e51b8152602060048201526016602482015275165bdd48185c99481b9bdd081c9959da5cdd195c995960521b604482015260640161047a565b33600090815260036020526040902054610100900460ff166105365760405162461bcd60e51b8152602060048201526014602482015273165bdd48185c99481b9bdd081d995c9a599a595960621b604482015260640161047a565b3360009081526003602052604090205462010000900460ff16156105955760405162461bcd60e51b8152602060048201526016602482015275165bdd481a185d9948185b1c9958591e481d9bdd195960521b604482015260640161047a565b600034116105dd5760405162461bcd60e51b81526020600482015260156024820152744d7573742073656e642045544820746f20766f746560581b604482015260640161047a565b6000821180156105ef57506001548211155b61060b5760405162461bcd60e51b815260040161047a90611b12565b6000828152600460208190526040909120015460ff1661066d5760405162461bcd60e51b815260206004820152601960248201527f43616e646964617465206973206e6f7420766572696669656400000000000000604482015260640161047a565b336000908152600360208181526040808420805462ff000019166201000017815560010186905585845260049091528220018054916106ab83611b56565b9091555050600280549060006106c083611b56565b9091555050604051829033907fd0e6c39f2e086dc49f1524b47725526a56945cd1ff661f37976f1725a1e5698690600090a35050565b6000546001600160a01b031633146107205760405162461bcd60e51b815260040161047a90611b6f565b6001600160a01b03811660009081526003602052604090205460ff166107885760405162461bcd60e51b815260206004820152601760248201527f566f746572206973206e6f742072656769737465726564000000000000000000604482015260640161047a565b6001600160a01b038116600090815260036020526040902054610100900460ff16156107ef5760405162461bcd60e51b8152602060048201526016602482015275159bdd195c88185b1c9958591e481d995c9a599a595960521b604482015260640161047a565b6001600160a01b038116600081815260036020526040808220805461ff001916610100179055517f73d35f4b5dc2339683083dec639ba37f0f5592fc26de0e0603ac5ba2412cd0049190a250565b6000546001600160a01b031633146108675760405162461bcd60e51b815260040161047a90611b6f565b600080600054600160a01b900460ff1660028111156108885761088861180d565b146108a55760405162461bcd60e51b815260040161047a90611ae2565b60008351116108f65760405162461bcd60e51b815260206004820152601e60248201527f43616e646964617465206e616d652063616e6e6f7420626520656d7074790000604482015260640161047a565b60008251116109475760405162461bcd60e51b815260206004820152601a60248201527f5061727479206e616d652063616e6e6f7420626520656d707479000000000000604482015260640161047a565b6001805490600061095783611b56565b90915550506040805160a081018252600180548083526020808401888152848601889052600060608601819052608086018190529283526004909152939020825181559251919291908201906109ad9082611c34565b50604082015160028201906109c29082611c34565b50606082015160038201556080909101516004909101805460ff19169115159190911790556001546040517fe64f834082661dd9ed89427b87edb6270fd6dad17198b0938f0edd058914c87f90610a1c9086908690611cf4565b60405180910390a2505050565b6060600060015467ffffffffffffffff811115610a4857610a4861184b565b604051908082528060200260200182016040528015610aad57816020015b610a9a6040518060a00160405280600081526020016060815260200160608152602001600081526020016000151581525090565b815260200190600190039081610a665790505b50905060015b6001548111610c5c57600460008281526020019081526020016000206040518060a001604052908160008201548152602001600182018054610af490611bb1565b80601f0160208091040260200160405190810160405280929190818152602001828054610b2090611bb1565b8015610b6d5780601f10610b4257610100808354040283529160200191610b6d565b820191906000526020600020905b815481529060010190602001808311610b5057829003601f168201915b50505050508152602001600282018054610b8690611bb1565b80601f0160208091040260200160405190810160405280929190818152602001828054610bb290611bb1565b8015610bff5780601f10610bd457610100808354040283529160200191610bff565b820191906000526020600020905b815481529060010190602001808311610be257829003601f168201915b50505091835250506003820154602082015260049091015460ff16151560409091015282610c2e600184611d22565b81518110610c3e57610c3e611d3b565b60200260200101819052508080610c5490611b56565b915050610ab3565b50919050565b60046020526000908152604090208054600182018054919291610c8490611bb1565b80601f0160208091040260200160405190810160405280929190818152602001828054610cb090611bb1565b8015610cfd5780601f10610cd257610100808354040283529160200191610cfd565b820191906000526020600020905b815481529060010190602001808311610ce057829003601f168201915b505050505090806002018054610d1290611bb1565b80601f0160208091040260200160405190810160405280929190818152602001828054610d3e90611bb1565b8015610d8b5780601f10610d6057610100808354040283529160200191610d8b565b820191906000526020600020905b815481529060010190602001808311610d6e57829003601f168201915b50505050600383015460049093015491929160ff16905085565b6000606080600080600086118015610dbf57506001548611155b610ddb5760405162461bcd60e51b815260040161047a90611b12565b6000600460008881526020019081526020016000206040518060a001604052908160008201548152602001600182018054610e1590611bb1565b80601f0160208091040260200160405190810160405280929190818152602001828054610e4190611bb1565b8015610e8e5780601f10610e6357610100808354040283529160200191610e8e565b820191906000526020600020905b815481529060010190602001808311610e7157829003601f168201915b50505050508152602001600282018054610ea790611bb1565b80601f0160208091040260200160405190810160405280929190818152602001828054610ed390611bb1565b8015610f205780601f10610ef557610100808354040283529160200191610f20565b820191906000526020600020905b815481529060010190602001808311610f0357829003601f168201915b5050509183525050600382015460208083019190915260049092015460ff161515604091820152825191830151908301516060840151608090940151929b919a509850919650945092505050565b60606001600054600160a01b900460ff166002811115610f9057610f9061180d565b1480610fb957506002600054600160a01b900460ff166002811115610fb757610fb761180d565b145b6110055760405162461bcd60e51b815260206004820152601960248201527f526573756c7473206e6f7420617661696c61626c652079657400000000000000604482015260640161047a565b61100d610a29565b905090565b6000546001600160a01b0316331461103c5760405162461bcd60e51b815260040161047a90611b6f565b600054600160a01b900460ff16600281111561105a5761105a61180d565b81600281111561106c5761106c61180d565b036110b15760405162461bcd60e51b8152602060048201526015602482015274416c726561647920696e207468697320737461746560581b604482015260640161047a565b60018160028111156110c5576110c561180d565b036111b15760008054600160a01b900460ff1660028111156110e9576110e961180d565b146111465760405162461bcd60e51b815260206004820152602760248201527f43616e206f6e6c7920737461727420766f74696e672066726f6d2072656769736044820152663a3930ba34b7b760c91b606482015260840161047a565b6000600154116111ac5760405162461bcd60e51b815260206004820152602b60248201527f4e656564206174206c65617374206f6e652063616e64696461746520746f207360448201526a7461727420766f74696e6760a81b606482015260840161047a565b611237565b60028160028111156111c5576111c561180d565b03611237576001600054600160a01b900460ff1660028111156111ea576111ea61180d565b146112375760405162461bcd60e51b815260206004820152601e60248201527f43616e206f6e6c7920656e642066726f6d20766f74696e672073746174650000604482015260640161047a565b6000805482919060ff60a01b1916600160a01b83600281111561125c5761125c61180d565b02179055507f82aa0cc22cbb103bd5f28a40c65b9e63f2df333bbb70c6c9128eb83d7cb1041d816040516112909190611823565b60405180910390a150565b600060608082600280600054600160a01b900460ff1660028111156112c2576112c261180d565b146112df5760405162461bcd60e51b815260040161047a90611ae2565b6000600154116113215760405162461bcd60e51b815260206004820152600d60248201526c4e6f2063616e6469646174657360981b604482015260640161047a565b60008060015b6001548111611373576000818152600460205260409020600301548310156113615760008181526004602052604090206003015492509050805b8061136b81611b56565b915050611327565b50600081116113b65760405162461bcd60e51b815260206004820152600f60248201526e139bc81dda5b9b995c88199bdd5b99608a1b604482015260640161047a565b6000600460008381526020019081526020016000206040518060a0016040529081600082015481526020016001820180546113f090611bb1565b80601f016020809104026020016040519081016040528092919081815260200182805461141c90611bb1565b80156114695780601f1061143e57610100808354040283529160200191611469565b820191906000526020600020905b81548152906001019060200180831161144c57829003601f168201915b5050505050815260200160028201805461148290611bb1565b80601f01602080910402602001604051908101604052809291908181526020018280546114ae90611bb1565b80156114fb5780601f106114d0576101008083540402835291602001916114fb565b820191906000526020600020905b8154815290600101906020018083116114de57829003601f168201915b5050509183525050600382015460208083019190915260049092015460ff16151560409182015282519183015190830151606090930151919b909a509198509650945050505050565b6000546001600160a01b0316331461156e5760405162461bcd60e51b815260040161047a90611b6f565b600080600054600160a01b900460ff16600281111561158f5761158f61180d565b146115ac5760405162461bcd60e51b815260040161047a90611ae2565b6000821180156115be57506001548211155b6115da5760405162461bcd60e51b815260040161047a90611b12565b6000828152600460208190526040909120015460ff161561163d5760405162461bcd60e51b815260206004820152601a60248201527f43616e64696461746520616c7265616479207665726966696564000000000000604482015260640161047a565b6000828152600460208190526040808320909101805460ff191660011790555183917f997c311b21ca9ada6475cc93d746592ebf05cb114894e4105380cd22dd4ff87a91a25050565b600080600054600160a01b900460ff1660028111156116a7576116a761180d565b146116c45760405162461bcd60e51b815260040161047a90611ae2565b3360009081526003602052604090205460ff16156117245760405162461bcd60e51b815260206004820152601860248201527f566f74657220616c726561647920726567697374657265640000000000000000604482015260640161047a565b604080516080810182526001808252600060208084018281528486018381526060860184815233808652600390945287852096518754935192511515620100000262ff0000199315156101000261ff00199215159290921661ffff1990951694909417179190911691909117855551939092019290925591517fb6be2187d059cc2a55fe29e0e503b566e1e0f8c8780096e185429350acffd3dd9190a250565b6000602082840312156117d657600080fd5b5035919050565b6000602082840312156117ef57600080fd5b81356001600160a01b038116811461180657600080fd5b9392505050565b634e487b7160e01b600052602160045260246000fd5b602081016003831061184557634e487b7160e01b600052602160045260246000fd5b91905290565b634e487b7160e01b600052604160045260246000fd5b600082601f83011261187257600080fd5b813567ffffffffffffffff8082111561188d5761188d61184b565b604051601f8301601f19908116603f011681019082821181831017156118b5576118b561184b565b816040528381528660208588010111156118ce57600080fd5b836020870160208301376000602085830101528094505050505092915050565b6000806040838503121561190157600080fd5b823567ffffffffffffffff8082111561191957600080fd5b61192586838701611861565b9350602085013591508082111561193b57600080fd5b5061194885828601611861565b9150509250929050565b6000815180845260005b818110156119785760208185018101518683018201520161195c565b506000602082860101526020601f19601f83011685010191505092915050565b60006020808301818452808551808352604092508286019150828160051b87010184880160005b83811015611a3157603f19898403018552815160a08151855288820151818a8701526119ed82870182611952565b9150508782015185820389870152611a058282611952565b6060848101519088015260809384015115159390960192909252505093860193908601906001016119bf565b509098975050505050505050565b85815260a060208201526000611a5860a0830187611952565b8281036040840152611a6a8187611952565b606084019590955250509015156080909101529392505050565b600060208284031215611a9657600080fd5b81356003811061180657600080fd5b848152608060208201526000611abe6080830186611952565b8281036040840152611ad08186611952565b91505082606083015295945050505050565b602080825260169082015275496e76616c696420656c656374696f6e20737461746560501b604082015260600190565b602080825260149082015273125b9d985b1a590818d85b991a59185d1948125160621b604082015260600190565b634e487b7160e01b600052601160045260246000fd5b600060018201611b6857611b68611b40565b5060010190565b60208082526022908201527f4f6e6c792061646d696e2063616e20706572666f726d2074686973206163746960408201526137b760f11b606082015260800190565b600181811c90821680611bc557607f821691505b602082108103610c5c57634e487b7160e01b600052602260045260246000fd5b601f821115611c2f57600081815260208120601f850160051c81016020861015611c0c5750805b601f850160051c820191505b81811015611c2b57828155600101611c18565b5050505b505050565b815167ffffffffffffffff811115611c4e57611c4e61184b565b611c6281611c5c8454611bb1565b84611be5565b602080601f831160018114611c975760008415611c7f5750858301515b600019600386901b1c1916600185901b178555611c2b565b600085815260208120601f198616915b82811015611cc657888601518255948401946001909101908401611ca7565b5085821015611ce45787850151600019600388901b60f8161c191681555b5050505050600190811b01905550565b604081526000611d076040830185611952565b8281036020840152611d198185611952565b95945050505050565b81810381811115611d3557611d35611b40565b92915050565b634e487b7160e01b600052603260045260246000fdfea26469706673582212209df76f9464b116319eb28fad394817755590d9f2c4b252381a3f27ecbbc31a8964736f6c63430008130033",
  "immutableReferences": {},
  "source": "// SPDX-License-Identifier: MIT\r\npragma solidity ^0.8.0;\r\n\r\ncontract VotingSystem {\r\n    // Struct  lu thng tin ng vin\r\n    struct Candidate {\r\n        uint256 id;\r\n        string name;\r\n        string party;\r\n        uint256 voteCount;\r\n        bool isVerified;\r\n    }\r\n\r\n    // Struct  lu thng tin c tri\r\n    struct Voter {\r\n        bool isRegistered;\r\n        bool isVerified;\r\n        bool hasVoted;\r\n        uint256 votedCandidateId;\r\n    }\r\n\r\n    // Enum trng thi cuc b phiu\r\n    enum ElectionState {\r\n        Registration, // ng k c tri v ng vin\r\n        Voting, // ang b phiu\r\n        Ended // Kt thc\r\n    }\r\n\r\n    // State variables\r\n    address public admin;\r\n    ElectionState public electionState;\r\n    uint256 public candidateCount;\r\n    uint256 public totalVotes;\r\n\r\n    // Mappings\r\n    mapping(address => Voter) public voters;\r\n    mapping(uint256 => Candidate) public candidates;\r\n\r\n    // Events\r\n    event CandidateAdded(\r\n        uint256 indexed candidateId,\r\n        string name,\r\n        string party\r\n    );\r\n    event CandidateVerified(uint256 indexed candidateId);\r\n    event VoterRegistered(address indexed voterAddress);\r\n    event VoterVerified(address indexed voterAddress);\r\n    event VoteCasted(address indexed voter, uint256 indexed candidateId);\r\n    event ElectionStateChanged(ElectionState newState);\r\n\r\n    // Modifiers\r\n    modifier onlyAdmin() {\r\n        require(msg.sender == admin, \"Only admin can perform this action\");\r\n        _;\r\n    }\r\n\r\n    modifier inState(ElectionState _state) {\r\n        require(electionState == _state, \"Invalid election state\");\r\n        _;\r\n    }\r\n\r\n    constructor() {\r\n        admin = msg.sender;\r\n        electionState = ElectionState.Registration;\r\n        candidateCount = 0;\r\n        totalVotes = 0;\r\n    }\r\n\r\n    // ============ ADMIN FUNCTIONS ============\r\n\r\n    // Thm ng vin (ch admin)\r\n    function addCandidate(\r\n        string memory _name,\r\n        string memory _party\r\n    ) public onlyAdmin inState(ElectionState.Registration) {\r\n        require(bytes(_name).length > 0, \"Candidate name cannot be empty\");\r\n        require(bytes(_party).length > 0, \"Party name cannot be empty\");\r\n\r\n        candidateCount++;\r\n        candidates[candidateCount] = Candidate({\r\n            id: candidateCount,\r\n            name: _name,\r\n            party: _party,\r\n            voteCount: 0,\r\n            isVerified: false\r\n        });\r\n\r\n        emit CandidateAdded(candidateCount, _name, _party);\r\n    }\r\n\r\n    // Xc thc ng vin\r\n    function verifyCandidate(\r\n        uint256 _candidateId\r\n    ) public onlyAdmin inState(ElectionState.Registration) {\r\n        require(\r\n            _candidateId > 0 && _candidateId <= candidateCount,\r\n            \"Invalid candidate ID\"\r\n        );\r\n        require(\r\n            !candidates[_candidateId].isVerified,\r\n            \"Candidate already verified\"\r\n        );\r\n\r\n        candidates[_candidateId].isVerified = true;\r\n        emit CandidateVerified(_candidateId);\r\n    }\r\n\r\n    // Xc thc c tri\r\n    function verifyVoter(address _voterAddress) public onlyAdmin {\r\n        require(voters[_voterAddress].isRegistered, \"Voter is not registered\");\r\n        require(!voters[_voterAddress].isVerified, \"Voter already verified\");\r\n\r\n        voters[_voterAddress].isVerified = true;\r\n        emit VoterVerified(_voterAddress);\r\n    }\r\n\r\n    // Chuyn i trng thi cuc b phiu\r\n    function changeElectionState(ElectionState _newState) public onlyAdmin {\r\n        require(_newState != electionState, \"Already in this state\");\r\n\r\n        // Validate state transitions\r\n        if (_newState == ElectionState.Voting) {\r\n            require(\r\n                electionState == ElectionState.Registration,\r\n                \"Can only start voting from registration\"\r\n            );\r\n            require(\r\n                candidateCount > 0,\r\n                \"Need at least one candidate to start voting\"\r\n            );\r\n        } else if (_newState == ElectionState.Ended) {\r\n            require(\r\n                electionState == ElectionState.Voting,\r\n                \"Can only end from voting state\"\r\n            );\r\n        }\r\n\r\n        electionState = _newState;\r\n        emit ElectionStateChanged(_newState);\r\n    }\r\n\r\n    // ============ VOTER FUNCTIONS ============\r\n\r\n    // ng k c tri\r\n    function registerVoter() public inState(ElectionState.Registration) {\r\n        require(!voters[msg.sender].isRegistered, \"Voter already registered\");\r\n\r\n        voters[msg.sender] = Voter({\r\n            isRegistered: true,\r\n            isVerified: false,\r\n            hasVoted: false,\r\n            votedCandidateId: 0\r\n        });\r\n\r\n        emit VoterRegistered(msg.sender);\r\n    }\r\n\r\n    // B phiu\r\n    function vote(uint256 _candidateId) public payable inState(ElectionState.Voting) {\r\n        require(voters[msg.sender].isRegistered, \"You are not registered\");\r\n        require(voters[msg.sender].isVerified, \"You are not verified\");\r\n        require(!voters[msg.sender].hasVoted, \"You have already voted\");\r\n        require(msg.value > 0, \"Must send ETH to vote\");\r\n        require(\r\n            _candidateId > 0 && _candidateId <= candidateCount,\r\n            \"Invalid candidate ID\"\r\n        );\r\n        require(\r\n            candidates[_candidateId].isVerified,\r\n            \"Candidate is not verified\"\r\n        );\r\n\r\n        voters[msg.sender].hasVoted = true;\r\n        voters[msg.sender].votedCandidateId = _candidateId;\r\n\r\n        candidates[_candidateId].voteCount++;\r\n        totalVotes++;\r\n\r\n        emit VoteCasted(msg.sender, _candidateId);\r\n    }\r\n\r\n    // ============ VIEW FUNCTIONS ============\r\n\r\n    // Ly thng tin ng vin\r\n    function getCandidate(\r\n        uint256 _candidateId\r\n    )\r\n        public\r\n        view\r\n        returns (\r\n            uint256 id,\r\n            string memory name,\r\n            string memory party,\r\n            uint256 voteCount,\r\n            bool isVerified\r\n        )\r\n    {\r\n        require(\r\n            _candidateId > 0 && _candidateId <= candidateCount,\r\n            \"Invalid candidate ID\"\r\n        );\r\n        Candidate memory c = candidates[_candidateId];\r\n        return (c.id, c.name, c.party, c.voteCount, c.isVerified);\r\n    }\r\n\r\n    // Ly tt c ng vin\r\n    function getAllCandidates() public view returns (Candidate[] memory) {\r\n        Candidate[] memory allCandidates = new Candidate[](candidateCount);\r\n        for (uint256 i = 1; i <= candidateCount; i++) {\r\n            allCandidates[i - 1] = candidates[i];\r\n        }\r\n        return allCandidates;\r\n    }\r\n\r\n    // Ly thng tin c tri\r\n    function getVoter(\r\n        address _voterAddress\r\n    )\r\n        public\r\n        view\r\n        returns (\r\n            bool isRegistered,\r\n            bool isVerified,\r\n            bool hasVoted,\r\n            uint256 votedCandidateId\r\n        )\r\n    {\r\n        Voter memory v = voters[_voterAddress];\r\n        return (v.isRegistered, v.isVerified, v.hasVoted, v.votedCandidateId);\r\n    }\r\n\r\n    // Kim tra xem address c phi admin khng\r\n    function isAdmin(address _address) public view returns (bool) {\r\n        return _address == admin;\r\n    }\r\n\r\n    // Ly kt qu b phiu (ch khi  kt thc hoc ang voting)\r\n    function getResults() public view returns (Candidate[] memory) {\r\n        require(\r\n            electionState == ElectionState.Voting ||\r\n                electionState == ElectionState.Ended,\r\n            \"Results not available yet\"\r\n        );\r\n        return getAllCandidates();\r\n    }\r\n\r\n    // Ly ngi chin thng\r\n    function getWinner()\r\n        public\r\n        view\r\n        inState(ElectionState.Ended)\r\n        returns (\r\n            uint256 id,\r\n            string memory name,\r\n            string memory party,\r\n            uint256 voteCount\r\n        )\r\n    {\r\n        require(candidateCount > 0, \"No candidates\");\r\n\r\n        uint256 winningVoteCount = 0;\r\n        uint256 winningCandidateId = 0;\r\n\r\n        for (uint256 i = 1; i <= candidateCount; i++) {\r\n            if (candidates[i].voteCount > winningVoteCount) {\r\n                winningVoteCount = candidates[i].voteCount;\r\n                winningCandidateId = i;\r\n            }\r\n        }\r\n\r\n        require(winningCandidateId > 0, \"No winner found\");\r\n        Candidate memory winner = candidates[winningCandidateId];\r\n        return (winner.id, winner.name, winner.party, winner.voteCount);\r\n    }\r\n}\r\n",
  "sourcePath": "D:\\Coding\\BlockChain\\smart-contracts\\contracts\\VotingSystem.sol",
  "compiler": {
    "name": "solc",
    "version": "0.8.19+commit.7dd6d404.Emscripten.clang"
  },
  "schemaVersion": "3.4.16",
  "updatedAt": "2025-12-17T10:09:42.338Z",
  "networkType": "ethereum",
  "devdoc": {
    "kind": "dev",
    "methods": {},
    "version": 1
  },
  "userdoc": {
    "kind": "user",
    "methods": {},
    "version": 1
  }
}